:020000040000FA
:020000002328B3
:040002000034003492
:08000800A000030EA100051C7D
:100010000D282314241025101C28851C13282414B3
:10002000231025101C28051D192825142310241021
:100030001C282510231024100B10210E8300A00E65
:10004000200E090008008316073085009F018730C5
:10005000810088308B0007309600831207309900AA
:100060002318372824184E28251863283028051609
:1000700085160A30A2003D3081000B110B1D3E2871
:10008000A20B3B28051285120A30A2003D308100E8
:100090000B110B1D4928A20B4628302805160A30E3
:1000A000A2003D3081000B110B1D5428A20B5128DA
:1000B00005120A30A2003D3081000B110B1D5E2895
:1000C000A20B5B28302885160A30A2003D30810043
:1000D0000B110B1D6928A20B662885120A30A2009D
:1000E0003D3081000B110B1D7328A20B70283028A6
:0200F0003028B6
:02400E00A43FCD
:00000001FF
